:100000000C9458020C9475020C9475020C947502B1
:100010000C9475020C9475020C9475020C94750284
:100020000C9475020C9475020C9475020C94750274
:100030000C9475020C9475020C9475020C94750264
:100040000C9475020C9475020C9475020C94750254
:100050000C9475020C9475020C9475020C94750244
:100060000C9475020C9475020C9475020C94750234
:10007000003E7F414D4F2E0000207454547C780088
:10008000007E7E484878300000387C4444440000BC
:1000900000307848487E7E0000387C54545C18005C
:1000A0000000087C7E0A0A000098BCA4A4FC7C0026
:1000B000007E7E08087870000000487A7A400000D0
:1000C0000000808080FA7A00007E7E103868400050
:1000D0000000427E7E400000007C7C18381C7C784A
:1000E000007C7C04047C780000387C44447C38002C
:1000F00000FCFC24243C180000183C2424FCFC00D8
:10010000007C7C04040C080000485C5454742400F7
:100110000004043E7E444400003C7C40407C7C0063
:10012000001C3C60603C1C00001C7C7038707C1C17
:1001300000446C38386C4400009CBCA0E07C3C005F
:10014000004464745C4C440000007F7F4141000027
:1001500040687C5E49492200000041417F7F0000E9
:1001600000080CFEFE0C080000183C7E1818181839
:1001700000000000000000000000004F4F000000E1
:100180000007070000070700147F7F14147F7F1407
:1001900000242E6B6B3A1200006333180C66630068
:1001A00000327F4D4D7772500000000406030100BD
:1001B00000001C3E63410000000041633E1C000043
:1001C000082A3E1C1C3E2A080008083E3E0808007B
:1001D000000080E06000000000080808080808002F
:1001E000000000606000000000406030180C060253
:1001F000003E7F49457F3E000040447F7F404000F5
:1002000000627351494F460000226349497F36001E
:1002100000181814167F7F1000276745457D3900A8
:10022000003E7F49497B3200000303797D070300CC
:1002300000367F49497F360000266F49497F3E00DE
:100240000000002424000000000080E4640000009E
:1002500000081C36634141000014141414141400E7
:1002600000414163361C080000020351590F06008B
:100270001818181818181818007C7E0B0B7E7C00B4
:10028000007F7F49497F3600003E7F414163220065
:10029000007F7F41633E1C00007F7F494941410050
:1002A000007F7F0909010100003E7F41497B3A0040
:1002B000007F7F08087F7F000000417F7F410000B2
:1002C000002060417F3F0100007F7F1C36634100BA
:1002D000007F7F4040404000007F7F060C067F7F0C
:1002E000007F7F0E1C7F7F00003E7F41417F3E00EC
:1002F000007F7F09090F0600001E3F21617F5E001D
:10030000007F7F19396F460000266F49497B320014
:100310000001017F7F010100003F7F40407F3F00DF
:10032000001F3F60603F1F00007F7F3018307F7FDD
:100330000063771C1C77630000070F78780F0700B5
:10034000006171594D474300181818FFFF1818181D
:100350003333CCCC00000000000000FFFF000000A1
:100360000000000F0F000000000000F0F00000008F
:10037000FFFFFFFFFFFFFFFFFFFFFFFF0000000089
:10038000F0F0F0F0F0F0F0F00101010101010101E5
:100390008080808080808080FFFF0000000000005F
:1003A0003333CCCC3333CCCC000000000000FFFF53
:1003B0003030C0C03030C0C03399CC663399CC6681
:1003C000000000000000FFFF000000FFFF181818E9
:1003D00000000000F0F0F0F00000001F1F181818D7
:1003E000181818F8F8000000C0C0C0C0C0C0C0C0D5
:1003F000000000F8F81818181818181F1F181818F7
:10040000181818F8F8181818181818FFFF00000026
:10041000FFFF000000000000FFFFFF0000000000E1
:100420000000000000FFFFFF0303030303030303B7
:100430000707070707070707E0E0E0E0E0E0E0E084
:1004400000787830180C0603F0F0F0F0000000009F
:10045000000000000F0F0F0F1818181F1F000000DA
:100460000F0F0F0F000000000F0F0F0FF0F0F0F054
:10047000808C98A5B0BCC6D0DAE2EAF0F5FAFDFEB1
:10048000FFFEFDFAF5F0EAE2DAD0C6BCB0A5988C22
:100490008073675A4F43392F251D150F0A05020136
:1004A000000102050A0F151D252F39434F5A6773A6
:1004B00011241FBECFEFD4E0DEBFCDBF11E0A0E01E
:1004C000B1E0E6E3F4E102C005900D92AE35B1076C
:1004D000D9F711E0AEE5B1E001C01D92AE36B1072B
:1004E000E1F70E9499050C94190A0C9400008823E6
:1004F00011F0499A01C049984A9887E090E070E06D
:100500004C989B01082E02C0359527950A94E2F776
:1005100020FF02C04D9A01C04D984C9A01972FEFD1
:100520008F3F920769F74C984A9A08956A9883EC2E
:1005300099E00197F1F700C000006A9A83EC99E016
:100540000197F1F700C0000080E06EEA0E94770298
:1005500080E065ED0E94770280E061E80E9477020A
:1005600080E068EA0E94770280E06FE30E947702F1
:1005700080E063ED0E94770280E060E00E947702F5
:1005800080E060E00E94770280E06DE80E947702E0
:1005900080E064E10E94770280E060E20E947702DE
:1005A00080E060E00E94770280E061EA0E947702CA
:1005B00080E065EA0E94770280E068EC0E947702A2
:1005C00080E06AED0E94770280E062E10E9477029B
:1005D00080E061E80E94770280E06FE70E94770286
:1005E00080E069ED0E94770280E061E10E9477027D
:1005F00080E06BED0E94770280E060E20E9477026B
:1006000080E066EA0E94770280E064EA0E94770256
:1006100080E06FEA0E94770208950895CF93C82F73
:1006200080E065ED0E94770280E06C2F0E947702E7
:10063000CF910895CF93C82F80E060E20E947702A7
:10064000C23008F0C0E080E06C2F0E947702CF91AA
:1006500008950F931F93CF93DF938C01C62FD0E0A3
:10066000209759F0C80FD91FF80161918F0181E0DF
:100670000E9477020C171D07B9F7DF91CF911F91E8
:100680000F9108950F931F93CF93DF93082F10E0DE
:10069000000F111F000F111F000F111FC801089636
:1006A0000817190770F4E801C059DF4F08581F4FA9
:1006B000FE01649181E00E9477022196C017D10764
:1006C000B9F7DF91CF911F910F910895982F925410
:1006D000983160F09052983110F4805607C0982FEE
:1006E0009052903218F0803208F4805A0E944203EF
:1006F000089580E061E20E94770280E060E00E945D
:10070000770280E06FE70E94770280E062E20E9459
:10071000770280E060E00E94770280E067E00E945C
:1007200077020895CF93DF93D82FC62F66230CF45A
:10073000CFE780E061E20E94770280E06C2F0E94A8
:10074000770280E06FE70E94770280E062E20E9419
:1007500077026D2FD83008F067E080E00E947702C2
:1007600080E067E00E947702DF91CF9108958830A2
:1007700008F087E0603108F06FE0660F660F660FE3
:100780000E9492030895CF93DF930E947903C0E003
:10079000D4E081E060E00E9477022197D1F7DF91F9
:1007A000CF9108958F929F92AF92BF92CF92DF9296
:1007B000EF92FF920F931F93CF93DF93D42EC22F0C
:1007C000470158010E94B703CC23D9F1D0E00C2D8A
:1007D000112707FD1095CD1570F5CC20ACF44D2FE9
:1007E000440F440F440FD501C40104C0B695A7952A
:1007F000979587954A95D2F7AC01BD01DF5F81E0FF
:10080000642F0E94770213C0A8014D0F511DD5011E
:10081000C40104C0B695A795979587954A95D2F7D8
:10082000AC01BD01DF5F81E0642F0E947702D4300C
:1008300030F0D0E004C081E060E00E947702C15057
:1008400051F6DF91CF911F910F91FF90EF90DF90C4
:10085000CF90BF90AF909F908F9008958F929F926E
:10086000AF92BF92CF92DF92EF92FF920F931F93BE
:10087000CF93DF93CDB7DEB760970FB6F894DEBFA6
:100880000FBECDBFF82EE62E142F052FB62EB69430
:10089000B694B694682F6695669566957E2D7F5FB3
:1008A0008B2D880F880F880F781BAF2CA394862F71
:1008B000880F880F880FA81A772359F4AA2049F4C3
:1008C0008B2D0E94B703812F902F68E00E9429038F
:1008D0004CC0412F502FFE0131960F2EF9E08F2E84
:1008E0009924F02D8C0E9D1E840188E090E06C010F
:1008F000C71AD108DA012D91AD0130E0C901072EE8
:1009000002C0880F991F0A94E2F78193C9010C2C49
:1009100002C0959587950A94E2F7D4018D934D0115
:10092000E017F10739F78B2D6F2D0E949203B8E77E
:10093000BF1518F468E06A1901C068E0CE0101969D
:100940000E94290387E38E1580F08B2D8F5F6F2D1A
:100950000E949203A8E7AF1518F468E06A1901C075
:1009600068E0CE0109960E94290360960FB6F894BC
:10097000DEBF0FBECDBFDF91CF911F910F91FF90D2
:10098000EF90DF90CF90BF90AF909F908F900895A1
:10099000CF93DF93EC018881882331F021960E9468
:1009A000660389918823D9F7DF91CF910895DF926B
:1009B000EF92FF920F931F93CF93DF93CDB7DEB7E4
:1009C000EC970FB6F894DEBF0FBECDBFE82ED62E43
:1009D000042FDE011196E0E0F1E08CE301900D922E
:1009E0008150E1F70A3048F58E2D6D2D0E94B70336
:1009F000802F90E08C01000F111F800F911F8C0140
:100A0000000F111F81E090E08C0F9D1F080F191F30
:100A1000FF2492E0F91619F0E4E0FE1629F4E394BD
:100A20008E2D6D2D0E94B703F80181918F010E94D8
:100A30006603F394F6E0FF1661F7EC960FB6F894B0
:100A4000DEBF0FBECDBFDF91CF911F910F91FF9001
:100A5000EF90DF900895BF92CF92DF92EF92FF92D6
:100A60000F931F93CF93DF93E82EF62ED42FB22E41
:100A70000E94B70380E10E9466030D2F10E0025030
:100A800010401016110654F4C0E080E40E94660382
:100A9000CF5F8C2F90E080179107BCF38EE00E940F
:100AA0006603CE2DCF5FCB2CDD24CE0CD11C089459
:100AB000C108D1088C2F90E08C159D05BCF48F2DBA
:100AC0008150D80F8C2F6F2D0E94B7038DE50E94A7
:100AD00066038C2F6D2F0E94B7038DE50E9466037D
:100AE000CF5F8C2F90E08C159D0564F38E2D815087
:100AF0008B0D6F2D0E94B7038DE00E9466031016C8
:100B0000110654F4C0E080E40E946603CF5F8C2F8E
:100B100090E080179107BCF38DE10E946603DF919E
:100B2000CF911F910F91FF90EF90DF90CF90BF90EA
:100B30000895CF93DF93CDB7DEB760970FB6F894E3
:100B4000DEBF0FBECDBF629A88B1866388B90E94AE
:100B500096020E94C303FE01319688E0DF011D92D8
:100B60008A95E9F7DE011996EDE4F1E088E001905D
:100B70000D928150E1F70E94B309BC01770F660B1B
:100B8000762F882777FD8095982F0E944308DC01F7
:100B9000CB018093660190936701A0936801B093A5
:100BA000690180E090E0DC0180936A0190936B0121
:100BB000A0936C01B0936D010E94B30990E0A0E096
:100BC000B0E0BC01CD010E9443089B01AC0160E094
:100BD00070E080EA90E40E94AD0720E030E040E25F
:100BE00050E40E944507DC01CB0180935E019093A5
:100BF0005F01A0936001B0936101992488240F2EB6
:100C0000F2E64F2EF1E05F2EF02D0F2EF6E66F2E5E
:100C1000F1E07F2EF02D0F2EFAE62F2EF1E03F2E81
:100C2000F02DF201608171818281938120915501C3
:100C30003091560140915701509158010E9445074B
:100C4000162F072FF82EE92E862F902FAF2DBE2DB1
:100C5000F20180839183A283B383D3016D917D914F
:100C60008D919C91EEE5F1E02081318142815381AB
:100C70000E944507D62EC72EB82EA92E862F9C2D52
:100C8000AB2DBA2DF30180839183A283B383812F8F
:100C9000902FAF2DBE2DBC01CD01AAE6B1E02D9164
:100CA0003D914D915C910E944507162F072FF82E1C
:100CB000E92E862F902FAF2DBE2DEAE6F1E080833E
:100CC0009183A283B3838D2D9C2DAB2DBA2DBC01B6
:100CD000CD010E941508B62E812F902FAF2DBE2D6D
:100CE000BC01CD010E941508162F87E060E00E942C
:100CF000B7038CE391E00E94C804882D692DAE01F2
:100D00004F5F5F4F0E942E048B2D612FAE01475F16
:100D10005F4F0E942E04D301CD90DD90ED90FC90AA
:100D2000C701B60120E030E040EF52E40E94F30832
:100D30001816ACF480E090E0A0EFB2E4F3018083F9
:100D40009183A283B383EEE5F1E080819181A2815A
:100D5000B381B05880839183A283B3831CC0C70141
:100D6000B60120E030E0A9010E94A90788239CF485
:100D700080E090E0DC01F30180839183A283B38360
:100D8000EEE5F1E080819181A281B381B05880834A
:100D90009183A283B383D101CD90DD90ED90FC903F
:100DA000C701B60120E030E040E652E40E94F308BB
:100DB0001816E4F480E090E0A0E6B2E4F10180834C
:100DC0009183A283B383D2016D917D918D919C918A
:100DD0002DEC3CEC4CE45FEB0E94F708DC01CB010E
:100DE000F20180839183A283B38323C0C701B6013C
:100DF00020E030E0A9010E94A9078823D4F480E014
:100E000090E0DC01F10180839183A283B383D2015E
:100E10006D917D918D919C912DEC3CEC4CE45FEBC0
:100E20000E94F708DC01CB01F20180839183A28349
:100E3000B383D1016D917D918D919C9120E030E043
:100E400040E652E40E94F3088823ACF0F30160818D
:100E500071818281938120E030E0A9010E94A9077D
:100E600018164CF080E090E0A0E4B0ECF201808332
:100E70009183A283B38383EE97E50197F1F700C0D6
:100E800000008B2C912ECDCE5058BB27AA270ED018
:100E900070C161D130F066D120F031F49F3F11F480
:100EA0001EF456C10EF4E095E7FB4CC1E92F72D158
:100EB00080F3BA17620773078407950718F071F477
:100EC0009EF58AC10EF4E0950B2EBA2FA02D0B01D2
:100ED000B90190010C01CA01A0011124FF27591B7F
:100EE00099F0593F50F4503E68F11A16F040A22F85
:100EF000232F342F4427585FF3CF469537952795F6
:100F0000A795F0405395C9F77EF41F16BA0B620BF4
:100F1000730B840BBAF09150A1F0FF0FBB1F661F3B
:100F2000771F881FC2F70EC0BA0F621F731F841F7E
:100F300048F4879577956795B795F7959E3F08F0A4
:100F4000B3CF9395880F08F09927EE0F9795879563
:100F50000895D4D008F481E008950CD00AC102D1DC
:100F600040F0F9D030F021F45F3F19F0EBC051119F
:100F700034C1EEC00FD198F39923C9F35523B1F3CF
:100F8000951B550BBB27AA2762177307840738F0F8
:100F90009F5F5F4F220F331F441FAA1FA9F333D057
:100FA0000E2E3AF0E0E830D091505040E695001C0B
:100FB000CAF729D0FE2F27D0660F771F881FBB1FC7
:100FC000261737074807AB07B0E809F0BB0B802DA1
:100FD000BF01FF2793585F4F2AF09E3F510568F0ED
:100FE000B1C0FBC05F3FECF3983EDCF3869577958C
:100FF0006795B795F7959F5FC9F7880F911D9695EF
:10100000879597F90895E1E0660F771F881FBB1F4A
:10101000621773078407BA0720F0621B730B840BF7
:10102000BA0BEE1F88F7E0950895BCD088F09F5763
:1010300090F0B92F9927B751A0F0D1F0660F771F24
:10104000881F991F1AF0BA95C9F712C0B13081F004
:10105000C3D0B1E00895C0C0672F782F8827B85F4C
:1010600039F0B93FCCF3869577956795B395D9F765
:101070003EF490958095709561957F4F8F4F9F4F6F
:101080000895E89409C097FB3EF49095809570957B
:1010900061957F4F8F4F9F4F9923A9F0F92F96E9C4
:1010A000BB279395F695879577956795B795F11139
:1010B000F8CFFAF4BB0F11F460FF1BC06F5F7F4FD6
:1010C0008F4F9F4F16C0882311F096E911C07723E8
:1010D00021F09EE8872F762F05C0662371F096E8F1
:1010E000862F70E060E02AF09A95660F771F881FC0
:1010F000DAF7880F9695879597F90895990F000864
:10110000550FAA0BE0E8FEEF16161706E807F907D9
:10111000C0F012161306E407F50798F0621B730B74
:10112000840B950B39F40A2661F0232B242B252BF5
:1011300021F408950A2609F4A140A6958FEF811D98
:10114000811D089597F99F6780E870E060E0089539
:101150009FEF80EC089500240A94161617061806CF
:101160000906089500240A941216130614060506AB
:101170000895092E0394000C11F4882352F0BB0F3C
:1011800040F4BF2B11F460FF04C06F5F7F4F8F4F9F
:101190009F4F089557FD9058440F551F59F05F3FDA
:1011A00071F04795880F97FB991F61F09F3F79F089
:1011B00087950895121613061406551FF2CF46950B
:1011C000F1DF08C0161617061806991FF1CF86958D
:1011D0007105610508940895E894BB276627772771
:1011E000CB0197F908958ADF08F48FEF08950AD0AC
:1011F000C0CFB1DF28F0B6DF18F0952309F0A2CFF9
:10120000A7CFEBCFC7DFA8F39923D9F35523C9F3B1
:10121000950F50E0551FAA27EE27FF27BB27002474
:101220000894679520F4E20FF31FB41F0A1E220FE3
:10123000331F441FAA1F6695A9F7779530F4F30F63
:10124000B41F0A1E121E08F46395330F441FAA1F11
:10125000221F769599F7879520F4B40F0A1E121E67
:10126000631F440FAA1F221F331F8695A9F7862FDD
:10127000712D602D11249F5750408AF0E1F0882392
:101280004AF0EE0FFF1FBB1F661F771F881F91508C
:101290005040A9F79E3F510570F054CF9ECF5F3F5D
:1012A000ECF3983EDCF3869577956795B795F795BF
:1012B000E7959F5FC1F7FE2B880F911D9695879547
:1012C00097F908958F929F92AF92BF92CF92DF923B
:1012D000EF92FF92CF93DF93EC0188819981AA81ED
:1012E000BB810097A105B10521F484E299EDABE53E
:1012F000B7E0BC01CD012DE133EF41E050E00E94A9
:10130000DC0969017A0127EA31E440E050E00E94FB
:10131000C3094B015C01C701B6012CEE34EF4FEF5E
:101320005FEF0E94C309AB01BC01480D591D6A1D46
:101330007B1D77FF04C04150504060407048488397
:1013400059836A837B835F77CA01DF91CF91FF90D6
:10135000EF90DF90CF90BF90AF909F908F900895C7
:101360000E946209089589E591E00E94620908954A
:10137000A0E0B0E08093590190935A01A0935B01E3
:10138000B0935C010895FF27EE27BB27AA2760FFD3
:1013900004C0A20FB31FE41FF51F220F331F441F09
:1013A000551F969587957795679589F700977607E6
:1013B00071F7CF01BD01089597FB092E05260ED0C8
:1013C00057FD04D014D00AD0001C38F45095409535
:1013D000309521953F4F4F4F5F4F0895F6F7909509
:1013E0008095709561957F4F8F4F9F4F0895A1E233
:1013F0001A2EAA1BBB1BFD010DC0AA1FBB1FEE1F8F
:10140000FF1FA217B307E407F50720F0A21BB30BD9
:10141000E40BF50B661F771F881F991F1A9469F755
:1014200060957095809590959B01AC01BD01CF01B1
:061430000895F894FFCFBF
:10143600100E5D5D0D1D200E205D2011100E101D7D
:101446000D1D100E20130D1D5F5F0D13205E100E77
:101456000D0E0D1D100E0B0E0D1D100E205B205EC9
:10146600100E0B130D1D100E0D130D1D535452416E
:10147600494748542042414C4C494E2700003C7E87
:0E1486007E7E7E3C00CDCCCC3D0100000000FF
:00000001FF
